{
  "_format": "hh-sol-artifact-1",
  "contractName": "MyEpicNFT",
  "sourceName": "contracts/MyEpicNFT.sol",
  "abi": [
    {
      "inputs": [],
      "stateMutability": "nonpayable",
      "type": "constructor"
    },
    {
      "anonymous": false,
      "inputs": [
        {
          "indexed": true,
          "internalType": "address",
          "name": "owner",
          "type": "address"
        },
        {
          "indexed": true,
          "internalType": "address",
          "name": "approved",
          "type": "address"
        },
        {
          "indexed": true,
          "internalType": "uint256",
          "name": "tokenId",
          "type": "uint256"
        }
      ],
      "name": "Approval",
      "type": "event"
    },
    {
      "anonymous": false,
      "inputs": [
        {
          "indexed": true,
          "internalType": "address",
          "name": "owner",
          "type": "address"
        },
        {
          "indexed": true,
          "internalType": "address",
          "name": "operator",
          "type": "address"
        },
        {
          "indexed": false,
          "internalType": "bool",
          "name": "approved",
          "type": "bool"
        }
      ],
      "name": "ApprovalForAll",
      "type": "event"
    },
    {
      "anonymous": false,
      "inputs": [
        {
          "indexed": false,
          "internalType": "address",
          "name": "sender",
          "type": "address"
        },
        {
          "indexed": false,
          "internalType": "uint256",
          "name": "tokenId",
          "type": "uint256"
        }
      ],
      "name": "NewEpicNFTMinted",
      "type": "event"
    },
    {
      "anonymous": false,
      "inputs": [
        {
          "indexed": true,
          "internalType": "address",
          "name": "from",
          "type": "address"
        },
        {
          "indexed": true,
          "internalType": "address",
          "name": "to",
          "type": "address"
        },
        {
          "indexed": true,
          "internalType": "uint256",
          "name": "tokenId",
          "type": "uint256"
        }
      ],
      "name": "Transfer",
      "type": "event"
    },
    {
      "inputs": [
        {
          "internalType": "address",
          "name": "to",
          "type": "address"
        },
        {
          "internalType": "uint256",
          "name": "tokenId",
          "type": "uint256"
        }
      ],
      "name": "approve",
      "outputs": [],
      "stateMutability": "nonpayable",
      "type": "function"
    },
    {
      "inputs": [
        {
          "internalType": "address",
          "name": "owner",
          "type": "address"
        }
      ],
      "name": "balanceOf",
      "outputs": [
        {
          "internalType": "uint256",
          "name": "",
          "type": "uint256"
        }
      ],
      "stateMutability": "view",
      "type": "function"
    },
    {
      "inputs": [
        {
          "internalType": "uint256",
          "name": "tokenId",
          "type": "uint256"
        }
      ],
      "name": "getApproved",
      "outputs": [
        {
          "internalType": "address",
          "name": "",
          "type": "address"
        }
      ],
      "stateMutability": "view",
      "type": "function"
    },
    {
      "inputs": [],
      "name": "getTotalMinted",
      "outputs": [
        {
          "internalType": "uint256",
          "name": "",
          "type": "uint256"
        }
      ],
      "stateMutability": "nonpayable",
      "type": "function"
    },
    {
      "inputs": [
        {
          "internalType": "address",
          "name": "owner",
          "type": "address"
        },
        {
          "internalType": "address",
          "name": "operator",
          "type": "address"
        }
      ],
      "name": "isApprovedForAll",
      "outputs": [
        {
          "internalType": "bool",
          "name": "",
          "type": "bool"
        }
      ],
      "stateMutability": "view",
      "type": "function"
    },
    {
      "inputs": [],
      "name": "makeAnEpicNFT",
      "outputs": [],
      "stateMutability": "nonpayable",
      "type": "function"
    },
    {
      "inputs": [],
      "name": "name",
      "outputs": [
        {
          "internalType": "string",
          "name": "",
          "type": "string"
        }
      ],
      "stateMutability": "view",
      "type": "function"
    },
    {
      "inputs": [
        {
          "internalType": "uint256",
          "name": "tokenId",
          "type": "uint256"
        }
      ],
      "name": "ownerOf",
      "outputs": [
        {
          "internalType": "address",
          "name": "",
          "type": "address"
        }
      ],
      "stateMutability": "view",
      "type": "function"
    },
    {
      "inputs": [
        {
          "internalType": "uint256",
          "name": "tokenId",
          "type": "uint256"
        }
      ],
      "name": "pickRandomFirstWord",
      "outputs": [
        {
          "internalType": "string",
          "name": "",
          "type": "string"
        }
      ],
      "stateMutability": "view",
      "type": "function"
    },
    {
      "inputs": [
        {
          "internalType": "uint256",
          "name": "tokenId",
          "type": "uint256"
        }
      ],
      "name": "pickRandomSecondWord",
      "outputs": [
        {
          "internalType": "string",
          "name": "",
          "type": "string"
        }
      ],
      "stateMutability": "view",
      "type": "function"
    },
    {
      "inputs": [
        {
          "internalType": "uint256",
          "name": "tokenId",
          "type": "uint256"
        }
      ],
      "name": "pickRandomThirdWord",
      "outputs": [
        {
          "internalType": "string",
          "name": "",
          "type": "string"
        }
      ],
      "stateMutability": "view",
      "type": "function"
    },
    {
      "inputs": [
        {
          "internalType": "address",
          "name": "from",
          "type": "address"
        },
        {
          "internalType": "address",
          "name": "to",
          "type": "address"
        },
        {
          "internalType": "uint256",
          "name": "tokenId",
          "type": "uint256"
        }
      ],
      "name": "safeTransferFrom",
      "outputs": [],
      "stateMutability": "nonpayable",
      "type": "function"
    },
    {
      "inputs": [
        {
          "internalType": "address",
          "name": "from",
          "type": "address"
        },
        {
          "internalType": "address",
          "name": "to",
          "type": "address"
        },
        {
          "internalType": "uint256",
          "name": "tokenId",
          "type": "uint256"
        },
        {
          "internalType": "bytes",
          "name": "_data",
          "type": "bytes"
        }
      ],
      "name": "safeTransferFrom",
      "outputs": [],
      "stateMutability": "nonpayable",
      "type": "function"
    },
    {
      "inputs": [
        {
          "internalType": "address",
          "name": "operator",
          "type": "address"
        },
        {
          "internalType": "bool",
          "name": "approved",
          "type": "bool"
        }
      ],
      "name": "setApprovalForAll",
      "outputs": [],
      "stateMutability": "nonpayable",
      "type": "function"
    },
    {
      "inputs": [
        {
          "internalType": "bytes4",
          "name": "interfaceId",
          "type": "bytes4"
        }
      ],
      "name": "supportsInterface",
      "outputs": [
        {
          "internalType": "bool",
          "name": "",
          "type": "bool"
        }
      ],
      "stateMutability": "view",
      "type": "function"
    },
    {
      "inputs": [],
      "name": "symbol",
      "outputs": [
        {
          "internalType": "string",
          "name": "",
          "type": "string"
        }
      ],
      "stateMutability": "view",
      "type": "function"
    },
    {
      "inputs": [
        {
          "internalType": "uint256",
          "name": "tokenId",
          "type": "uint256"
        }
      ],
      "name": "tokenURI",
      "outputs": [
        {
          "internalType": "string",
          "name": "",
          "type": "string"
        }
      ],
      "stateMutability": "view",
      "type": "function"
    },
    {
      "inputs": [],
      "name": "totalMinted",
      "outputs": [
        {
          "internalType": "uint256",
          "name": "",
          "type": "uint256"
        }
      ],
      "stateMutability": "view",
      "type": "function"
    },
    {
      "inputs": [],
      "name": "totalSupply",
      "outputs": [
        {
          "internalType": "uint256",
          "name": "",
          "type": "uint256"
        }
      ],
      "stateMutability": "view",
      "type": "function"
    },
    {
      "inputs": [
        {
          "internalType": "address",
          "name": "from",
          "type": "address"
        },
        {
          "internalType": "address",
          "name": "to",
          "type": "address"
        },
        {
          "internalType": "uint256",
          "name": "tokenId",
          "type": "uint256"
        }
      ],
      "name": "transferFrom",
      "outputs": [],
      "stateMutability": "nonpayable",
      "type": "function"
    }
  ],
  "bytecode": "0x60806040526000600755603260085560405180610160016040528061012f8152602001620043cd61012f9139600a90805190602001906200004292919062000688565b506040518060c001604052806040518060400160405280600481526020017f476f6f640000000000000000000000000000000000000000000000000000000081525081526020016040518060400160405280600781526020017f416d617a696e670000000000000000000000000000000000000000000000000081525081526020016040518060400160405280600b81526020017f4d61676e69666973656e7400000000000000000000000000000000000000000081525081526020016040518060400160405280600881526020017f53686f636b696e6700000000000000000000000000000000000000000000000081525081526020016040518060400160405280600881526020017f5465727269626c6500000000000000000000000000000000000000000000000081525081526020016040518060400160405280600981526020017f44616e676f757275730000000000000000000000000000000000000000000000815250815250600b906006620001c092919062000719565b506040518060c001604052806040518060400160405280600381526020017f436174000000000000000000000000000000000000000000000000000000000081525081526020016040518060400160405280600381526020017f446f67000000000000000000000000000000000000000000000000000000000081525081526020016040518060400160405280600381526020017f506574000000000000000000000000000000000000000000000000000000000081525081526020016040518060400160405280600581526020017f506c616e7400000000000000000000000000000000000000000000000000000081525081526020016040518060400160405280600581526020017f56696e796c00000000000000000000000000000000000000000000000000000081525081526020016040518060400160405280600281526020017f5476000000000000000000000000000000000000000000000000000000000000815250815250600c9060066200033e92919062000719565b506040518060c001604052806040518060400160405280600481526020017f466f6f640000000000000000000000000000000000000000000000000000000081525081526020016040518060400160405280600481526020017f486f6d650000000000000000000000000000000000000000000000000000000081525081526020016040518060400160405280600581526020017f576f726c6400000000000000000000000000000000000000000000000000000081525081526020016040518060400160405280600381526020017f457965000000000000000000000000000000000000000000000000000000000081525081526020016040518060400160405280600481526020017f4c616d700000000000000000000000000000000000000000000000000000000081525081526020016040518060400160405280600481526020017f4c616d6200000000000000000000000000000000000000000000000000000000815250815250600d906006620004bc92919062000719565b50348015620004ca57600080fd5b506040518060400160405280600881526020017f536974616c4e46540000000000000000000000000000000000000000000000008152506040518060400160405280600581526020017f534954414c00000000000000000000000000000000000000000000000000000081525081600090805190602001906200054f92919062000688565b5080600190805190602001906200056892919062000688565b505050620005b66040518060400160405280601e81526020017f54686973206973206d79204e465420636f6e74726163742e20576f6168210000815250620005bc60201b620013251760201c565b6200093a565b6200065c81604051602401620005d391906200084e565b6040516020818303038152906040527f41304fac000000000000000000000000000000000000000000000000000000007bffffffffffffffffffffffffffffffffffffffffffffffffffffffff19166020820180517bffffffffffffffffffffffffffffffffffffffffffffffffffffffff83818316178352505050506200065f60201b60201c565b50565b60008151905060006a636f6e736f6c652e6c6f679050602083016000808483855afa5050505050565b8280546200069690620008c4565b90600052602060002090601f016020900481019282620006ba576000855562000706565b82601f10620006d557805160ff191683800117855562000706565b8280016001018555821562000706579182015b8281111562000705578251825591602001919060010190620006e8565b5b50905062000715919062000780565b5090565b8280548282559060005260206000209081019282156200076d579160200282015b828111156200076c5782518290805190602001906200075b92919062000688565b50916020019190600101906200073a565b5b5090506200077c91906200079f565b5090565b5b808211156200079b57600081600090555060010162000781565b5090565b5b80821115620007c35760008181620007b99190620007c7565b50600101620007a0565b5090565b508054620007d590620008c4565b6000825580601f10620007e957506200080a565b601f01602090049060005260206000209081019062000809919062000780565b5b50565b60006200081a8262000872565b6200082681856200087d565b9350620008388185602086016200088e565b620008438162000929565b840191505092915050565b600060208201905081810360008301526200086a81846200080d565b905092915050565b600081519050919050565b600082825260208201905092915050565b60005b83811015620008ae57808201518184015260208101905062000891565b83811115620008be576000848401525b50505050565b60006002820490506001821680620008dd57607f821691505b60208210811415620008f457620008f3620008fa565b5b50919050565b7f4e487b7100000000000000000000000000000000000000000000000000000000600052602260045260246000fd5b6000601f19601f8301169050919050565b613a83806200094a6000396000f3fe608060405234801561001057600080fd5b506004361061012c5760003560e01c806370a08231116100ad578063b88d4fde11610071578063b88d4fde14610357578063c575757a14610373578063c87b56dd146103a3578063de9d132f146103d3578063e985e9c5146103dd5761012c565b806370a082311461029f57806395d89b41146102cf578063a22cb465146102ed578063a2309ff814610309578063b187301f146103275761012c565b806318160ddd116100f457806318160ddd146101e957806323b872dd146102075780632de38d681461022357806342842e0e146102535780636352211e1461026f5761012c565b806301ffc9a71461013157806306fdde0314610161578063081812fc1461017f578063095ea7b3146101af5780630ca1c5c9146101cb575b600080fd5b61014b60048036038101906101469190612651565b61040d565b60405161015891906132d9565b60405180910390f35b6101696104ef565b60405161017691906132f4565b60405180910390f35b610199600480360381019061019491906126a3565b610581565b6040516101a69190613249565b60405180910390f35b6101c960048036038101906101c49190612615565b610606565b005b6101d361071e565b6040516101e09190613574565b60405180910390f35b6101f1610728565b6040516101fe9190613574565b60405180910390f35b610221600480360381019061021c919061250f565b61072e565b005b61023d600480360381019061023891906126a3565b61078e565b60405161024a91906132f4565b60405180910390f35b61026d6004803603810190610268919061250f565b6108ac565b005b610289600480360381019061028491906126a3565b6108cc565b6040516102969190613249565b60405180910390f35b6102b960048036038101906102b491906124aa565b61097e565b6040516102c69190613574565b60405180910390f35b6102d7610a36565b6040516102e491906132f4565b60405180910390f35b610307600480360381019061030291906125d9565b610ac8565b005b610311610c49565b60405161031e9190613574565b60405180910390f35b610341600480360381019061033c91906126a3565b610c4f565b60405161034e91906132f4565b60405180910390f35b610371600480360381019061036c919061255e565b610d6d565b005b61038d600480360381019061038891906126a3565b610dcf565b60405161039a91906132f4565b60405180910390f35b6103bd60048036038101906103b891906126a3565b610eed565b6040516103ca91906132f4565b60405180910390f35b6103db61103f565b005b6103f760048036038101906103f291906124d3565b611291565b60405161040491906132d9565b60405180910390f35b60007f80ac58cd000000000000000000000000000000000000000000000000000000007bffffffffffffffffffffffffffffffffffffffffffffffffffffffff1916827bffffffffffffffffffffffffffffffffffffffffffffffffffffffff191614806104d857507f5b5e139f000000000000000000000000000000000000000000000000000000007bffffffffffffffffffffffffffffffffffffffffffffffffffffffff1916827bffffffffffffffffffffffffffffffffffffffffffffffffffffffff1916145b806104e857506104e7826113be565b5b9050919050565b6060600080546104fe90613813565b80601f016020809104026020016040519081016040528092919081815260200182805461052a90613813565b80156105775780601f1061054c57610100808354040283529160200191610577565b820191906000526020600020905b81548152906001019060200180831161055a57829003601f168201915b5050505050905090565b600061058c82611428565b6105cb576040517f08c379a00000000000000000000000000000000000000000000000000000000081526004016105c2906134d4565b60405180910390fd5b6004600083815260200190815260200160002060009054906101000a900473ffffffffffffffffffffffffffffffffffffffff169050919050565b6000610611826108cc565b90508073ffffffffffffffffffffffffffffffffffffffff168373ffffffffffffffffffffffffffffffffffffffff161415610682576040517f08c379a000000000000000000000000000000000000000000000000000000000815260040161067990613534565b60405180910390fd5b8073ffffffffffffffffffffffffffffffffffffffff166106a1611494565b73ffffffffffffffffffffffffffffffffffffffff1614806106d057506106cf816106ca611494565b611291565b5b61070f576040517f08c379a000000000000000000000000000000000000000000000000000000000815260040161070690613414565b60405180910390fd5b610719838361149c565b505050565b6000600754905090565b60085481565b61073f610739611494565b82611555565b61077e576040517f08c379a000000000000000000000000000000000000000000000000000000000815260040161077590613554565b60405180910390fd5b610789838383611633565b505050565b606060006107c261079e8461188f565b6040516020016107ae9190613205565b604051602081830303815290604052611a3c565b9050600b80549050816107d5919061388e565b9050600b8181548110610811577f4e487b7100000000000000000000000000000000000000000000000000000000600052603260045260246000fd5b90600052602060002001805461082690613813565b80601f016020809104026020016040519081016040528092919081815260200182805461085290613813565b801561089f5780601f106108745761010080835404028352916020019161089f565b820191906000526020600020905b81548152906001019060200180831161088257829003601f168201915b5050505050915050919050565b6108c783838360405180602001604052806000815250610d6d565b505050565b6000806002600084815260200190815260200160002060009054906101000a900473ffffffffffffffffffffffffffffffffffffffff169050600073ffffffffffffffffffffffffffffffffffffffff168173ffffffffffffffffffffffffffffffffffffffff161415610975576040517f08c379a000000000000000000000000000000000000000000000000000000000815260040161096c90613454565b60405180910390fd5b80915050919050565b60008073ffffffffffffffffffffffffffffffffffffffff168273ffffffffffffffffffffffffffffffffffffffff1614156109ef576040517f08c379a00000000000000000000000000000000000000000000000000000000081526004016109e690613434565b60405180910390fd5b600360008373ffffffffffffffffffffffffffffffffffffffff1673ffffffffffffffffffffffffffffffffffffffff168152602001908152602001600020549050919050565b606060018054610a4590613813565b80601f0160208091040260200160405190810160405280929190818152602001828054610a7190613813565b8015610abe5780601f10610a9357610100808354040283529160200191610abe565b820191906000526020600020905b815481529060010190602001808311610aa157829003601f168201915b5050505050905090565b610ad0611494565b73ffffffffffffffffffffffffffffffffffffffff168273ffffffffffffffffffffffffffffffffffffffff161415610b3e576040517f08c379a0000000000000000000000000000000000000000000000000000000008152600401610b35906133b4565b60405180910390fd5b8060056000610b4b611494565b73ffffffffffffffffffffffffffffffffffffffff1673ffffffffffffffffffffffffffffffffffffffff16815260200190815260200160002060008473ffffffffffffffffffffffffffffffffffffffff1673ffffffffffffffffffffffffffffffffffffffff16815260200190815260200160002060006101000a81548160ff0219169083151502179055508173ffffffffffffffffffffffffffffffffffffffff16610bf8611494565b73ffffffffffffffffffffffffffffffffffffffff167f17307eab39ab6107e8899845ad3d59bd9653f200f220920489ca2b5937696c3183604051610c3d91906132d9565b60405180910390a35050565b60075481565b60606000610c83610c5f8461188f565b604051602001610c6f919061319e565b604051602081830303815290604052611a3c565b9050600c8054905081610c96919061388e565b9050600c8181548110610cd2577f4e487b7100000000000000000000000000000000000000000000000000000000600052603260045260246000fd5b906000526020600020018054610ce790613813565b80601f0160208091040260200160405190810160405280929190818152602001828054610d1390613813565b8015610d605780601f10610d3557610100808354040283529160200191610d60565b820191906000526020600020905b815481529060010190602001808311610d4357829003601f168201915b5050505050915050919050565b610d7e610d78611494565b83611555565b610dbd576040517f08c379a0000000000000000000000000000000000000000000000000000000008152600401610db490613554565b60405180910390fd5b610dc984848484611a6f565b50505050565b60606000610e03610ddf8461188f565b604051602001610def919061317c565b604051602081830303815290604052611a3c565b9050600d8054905081610e16919061388e565b9050600d8181548110610e52577f4e487b7100000000000000000000000000000000000000000000000000000000600052603260045260246000fd5b906000526020600020018054610e6790613813565b80601f0160208091040260200160405190810160405280929190818152602001828054610e9390613813565b8015610ee05780601f10610eb557610100808354040283529160200191610ee0565b820191906000526020600020905b815481529060010190602001808311610ec357829003601f168201915b5050505050915050919050565b6060610ef882611428565b610f37576040517f08c379a0000000000000000000000000000000000000000000000000000000008152600401610f2e906134b4565b60405180910390fd5b6000600660008481526020019081526020016000208054610f5790613813565b80601f0160208091040260200160405190810160405280929190818152602001828054610f8390613813565b8015610fd05780601f10610fa557610100808354040283529160200191610fd0565b820191906000526020600020905b815481529060010190602001808311610fb357829003601f168201915b505050505090506000610fe1611acb565b9050600081511415610ff757819250505061103a565b60008251111561102c5780826040516020016110149291906130f8565b6040516020818303038152906040529250505061103a565b61103584611ae2565b925050505b919050565b60085460075410611085576040517f08c379a000000000000000000000000000000000000000000000000000000000815260040161107c906133d4565b60405180910390fd5b60016007546110949190613648565b60078190555060006110a66009611b89565b905060006110b38261078e565b905060006110c083610c4f565b905060006110cd84610dcf565b905060008383836040516020016110e69392919061311c565b60405160208183030381529060405290506000600a8260405160200161110d92919061314d565b604051602081830303815290604052905060006111528361112d84611b97565b60405160200161113e9291906131c0565b604051602081830303815290604052611b97565b90506000816040516020016111679190613227565b60405160208183030381529060405290506111b66040518060400160405280601581526020017f0a2d2d2d2d2d2d2d2d2d2d2d2d2d2d2d2d2d2d2d2d0000000000000000000000815250611325565b6111bf81611325565b6111fd6040518060400160405280601581526020017f2d2d2d2d2d2d2d2d2d2d2d2d2d2d2d2d2d2d2d2d0a0000000000000000000000815250611325565b6112073389611d55565b6112118882611d73565b61121b6009611de7565b61123e6040518060600160405280602581526020016139e9602591398933611dfd565b61124e61124961071e565b611e9c565b7febb98688741ffa4c7589bf325de30cf7becb63de567842e1ccdb6cb949fdc82c338960405161127f9291906132b0565b60405180910390a15050505050505050565b6000600560008473ffffffffffffffffffffffffffffffffffffffff1673ffffffffffffffffffffffffffffffffffffffff16815260200190815260200160002060008373ffffffffffffffffffffffffffffffffffffffff1673ffffffffffffffffffffffffffffffffffffffff16815260200190815260200160002060009054906101000a900460ff16905092915050565b6113bb8160405160240161133991906132f4565b6040516020818303038152906040527f41304fac000000000000000000000000000000000000000000000000000000007bffffffffffffffffffffffffffffffffffffffffffffffffffffffff19166020820180517bffffffffffffffffffffffffffffffffffffffffffffffffffffffff8381831617835250505050611f35565b50565b60007f01ffc9a7000000000000000000000000000000000000000000000000000000007bffffffffffffffffffffffffffffffffffffffffffffffffffffffff1916827bffffffffffffffffffffffffffffffffffffffffffffffffffffffff1916149050919050565b60008073ffffffffffffffffffffffffffffffffffffffff166002600084815260200190815260200160002060009054906101000a900473ffffffffffffffffffffffffffffffffffffffff1673ffffffffffffffffffffffffffffffffffffffff1614159050919050565b600033905090565b816004600083815260200190815260200160002060006101000a81548173ffffffffffffffffffffffffffffffffffffffff021916908373ffffffffffffffffffffffffffffffffffffffff160217905550808273ffffffffffffffffffffffffffffffffffffffff1661150f836108cc565b73ffffffffffffffffffffffffffffffffffffffff167f8c5be1e5ebec7d5bd14f71427d1e84f3dd0314c0f7b2291e5b200ac8c7c3b92560405160405180910390a45050565b600061156082611428565b61159f576040517f08c379a0000000000000000000000000000000000000000000000000000000008152600401611596906133f4565b60405180910390fd5b60006115aa836108cc565b90508073ffffffffffffffffffffffffffffffffffffffff168473ffffffffffffffffffffffffffffffffffffffff16148061161957508373ffffffffffffffffffffffffffffffffffffffff1661160184610581565b73ffffffffffffffffffffffffffffffffffffffff16145b8061162a57506116298185611291565b5b91505092915050565b8273ffffffffffffffffffffffffffffffffffffffff16611653826108cc565b73ffffffffffffffffffffffffffffffffffffffff16146116a9576040517f08c379a00000000000000000000000000000000000000000000000000000000081526004016116a0906134f4565b60405180910390fd5b600073ffffffffffffffffffffffffffffffffffffffff168273ffffffffffffffffffffffffffffffffffffffff161415611719576040517f08c379a000000000000000000000000000000000000000000000000000000000815260040161171090613394565b60405180910390fd5b611724838383611f5e565b61172f60008261149c565b6001600360008573ffffffffffffffffffffffffffffffffffffffff1673ffffffffffffffffffffffffffffffffffffffff168152602001908152602001600020600082825461177f9190613729565b925050819055506001600360008473ffffffffffffffffffffffffffffffffffffffff1673ffffffffffffffffffffffffffffffffffffffff16815260200190815260200160002060008282546117d69190613648565b92505081905550816002600083815260200190815260200160002060006101000a81548173ffffffffffffffffffffffffffffffffffffffff021916908373ffffffffffffffffffffffffffffffffffffffff160217905550808273ffffffffffffffffffffffffffffffffffffffff168473ffffffffffffffffffffffffffffffffffffffff167fddf252ad1be2c89b69c2b068fc378daa952ba7f163c4a11628f55a4df523b3ef60405160405180910390a4505050565b606060008214156118d7576040518060400160405280600181526020017f30000000000000000000000000000000000000000000000000000000000000008152509050611a37565b600082905060005b600082146119095780806118f290613845565b915050600a82611902919061369e565b91506118df565b60008167ffffffffffffffff81111561194b577f4e487b7100000000000000000000000000000000000000000000000000000000600052604160045260246000fd5b6040519080825280601f01601f19166020018201604052801561197d5781602001600182028036833780820191505090505b5090505b60008514611a30576001826119969190613729565b9150600a856119a5919061388e565b60306119b19190613648565b60f81b8183815181106119ed577f4e487b7100000000000000000000000000000000000000000000000000000000600052603260045260246000fd5b60200101907effffffffffffffffffffffffffffffffffffffffffffffffffffffffffffff1916908160001a905350600a85611a29919061369e565b9450611981565b8093505050505b919050565b600081604051602001611a4f91906130e1565b6040516020818303038152906040528051906020012060001c9050919050565b611a7a848484611633565b611a8684848484611f63565b611ac5576040517f08c379a0000000000000000000000000000000000000000000000000000000008152600401611abc90613354565b60405180910390fd5b50505050565b606060405180602001604052806000815250905090565b6060611aed82611428565b611b2c576040517f08c379a0000000000000000000000000000000000000000000000000000000008152600401611b2390613514565b60405180910390fd5b6000611b36611acb565b90506000815111611b565760405180602001604052806000815250611b81565b80611b608461188f565b604051602001611b719291906130f8565b6040516020818303038152906040525b915050919050565b600081600001549050919050565b60606000825190506000811415611bc05760405180602001604052806000815250915050611d50565b60006003600283611bd19190613648565b611bdb919061369e565b6004611be791906136cf565b90506000602082611bf89190613648565b67ffffffffffffffff811115611c37577f4e487b7100000000000000000000000000000000000000000000000000000000600052604160045260246000fd5b6040519080825280601f01601f191660200182016040528015611c695781602001600182028036833780820191505090505b5090506000604051806060016040528060408152602001613a0e604091399050600181016020830160005b86811015611d0d5760038101905062ffffff818a015116603f8160121c168401518060081b905060ff603f83600c1c1686015116810190508060081b905060ff603f8360061c1686015116810190508060081b905060ff603f831686015116810190508060e01b90508084526004840193505050611c94565b506003860660018114611d275760028114611d3757611d42565b613d3d60f01b6002830352611d42565b603d60f81b60018303525b508484525050819450505050505b919050565b611d6f8282604051806020016040528060008152506120fa565b5050565b611d7c82611428565b611dbb576040517f08c379a0000000000000000000000000000000000000000000000000000000008152600401611db290613474565b60405180910390fd5b80600660008481526020019081526020016000209080519060200190611de2929190612336565b505050565b6001816000016000828254019250508190555050565b611e97838383604051602401611e1593929190613316565b6040516020818303038152906040527fe3849f79000000000000000000000000000000000000000000000000000000007bffffffffffffffffffffffffffffffffffffffffffffffffffffffff19166020820180517bffffffffffffffffffffffffffffffffffffffffffffffffffffffff8381831617835250505050611f35565b505050565b611f3281604051602401611eb09190613574565b6040516020818303038152906040527ff5b1bba9000000000000000000000000000000000000000000000000000000007bffffffffffffffffffffffffffffffffffffffffffffffffffffffff19166020820180517bffffffffffffffffffffffffffffffffffffffffffffffffffffffff8381831617835250505050611f35565b50565b60008151905060006a636f6e736f6c652e6c6f679050602083016000808483855afa5050505050565b505050565b6000611f848473ffffffffffffffffffffffffffffffffffffffff16612155565b156120ed578373ffffffffffffffffffffffffffffffffffffffff1663150b7a02611fad611494565b8786866040518563ffffffff1660e01b8152600401611fcf9493929190613264565b602060405180830381600087803b158015611fe957600080fd5b505af192505050801561201a57506040513d601f19601f82011682018060405250810190612017919061267a565b60015b61209d573d806000811461204a576040519150601f19603f3d011682016040523d82523d6000602084013e61204f565b606091505b50600081511415612095576040517f08c379a000000000000000000000000000000000000000000000000000000000815260040161208c90613354565b60405180910390fd5b805181602001fd5b63150b7a0260e01b7bffffffffffffffffffffffffffffffffffffffffffffffffffffffff1916817bffffffffffffffffffffffffffffffffffffffffffffffffffffffff1916149150506120f2565b600190505b949350505050565b6121048383612168565b6121116000848484611f63565b612150576040517f08c379a000000000000000000000000000000000000000000000000000000000815260040161214790613354565b60405180910390fd5b505050565b600080823b905060008111915050919050565b600073ffffffffffffffffffffffffffffffffffffffff168273ffffffffffffffffffffffffffffffffffffffff1614156121d8576040517f08c379a00000000000000000000000000000000000000000000000000000000081526004016121cf90613494565b60405180910390fd5b6121e181611428565b15612221576040517f08c379a000000000000000000000000000000000000000000000000000000000815260040161221890613374565b60405180910390fd5b61222d60008383611f5e565b6001600360008473ffffffffffffffffffffffffffffffffffffffff1673ffffffffffffffffffffffffffffffffffffffff168152602001908152602001600020600082825461227d9190613648565b92505081905550816002600083815260200190815260200160002060006101000a81548173ffffffffffffffffffffffffffffffffffffffff021916908373ffffffffffffffffffffffffffffffffffffffff160217905550808273ffffffffffffffffffffffffffffffffffffffff16600073ffffffffffffffffffffffffffffffffffffffff167fddf252ad1be2c89b69c2b068fc378daa952ba7f163c4a11628f55a4df523b3ef60405160405180910390a45050565b82805461234290613813565b90600052602060002090601f01602090048101928261236457600085556123ab565b82601f1061237d57805160ff19168380011785556123ab565b828001600101855582156123ab579182015b828111156123aa57825182559160200191906001019061238f565b5b5090506123b891906123bc565b5090565b5b808211156123d55760008160009055506001016123bd565b5090565b60006123ec6123e7846135c0565b61358f565b90508281526020810184848401111561240457600080fd5b61240f8482856137d1565b509392505050565b6000813590506124268161398c565b92915050565b60008135905061243b816139a3565b92915050565b600081359050612450816139ba565b92915050565b600081519050612465816139ba565b92915050565b600082601f83011261247c57600080fd5b813561248c8482602086016123d9565b91505092915050565b6000813590506124a4816139d1565b92915050565b6000602082840312156124bc57600080fd5b60006124ca84828501612417565b91505092915050565b600080604083850312156124e657600080fd5b60006124f485828601612417565b925050602061250585828601612417565b9150509250929050565b60008060006060848603121561252457600080fd5b600061253286828701612417565b935050602061254386828701612417565b925050604061255486828701612495565b9150509250925092565b6000806000806080858703121561257457600080fd5b600061258287828801612417565b945050602061259387828801612417565b93505060406125a487828801612495565b925050606085013567ffffffffffffffff8111156125c157600080fd5b6125cd8782880161246b565b91505092959194509250565b600080604083850312156125ec57600080fd5b60006125fa85828601612417565b925050602061260b8582860161242c565b9150509250929050565b6000806040838503121561262857600080fd5b600061263685828601612417565b925050602061264785828601612495565b9150509250929050565b60006020828403121561266357600080fd5b600061267184828501612441565b91505092915050565b60006020828403121561268c57600080fd5b600061269a84828501612456565b91505092915050565b6000602082840312156126b557600080fd5b60006126c384828501612495565b91505092915050565b6126d58161375d565b82525050565b6126e48161376f565b82525050565b60006126f582613605565b6126ff818561361b565b935061270f8185602086016137e0565b6127188161397b565b840191505092915050565b600061272e82613610565b612738818561362c565b93506127488185602086016137e0565b6127518161397b565b840191505092915050565b600061276782613610565b612771818561363d565b93506127818185602086016137e0565b80840191505092915050565b6000815461279a81613813565b6127a4818661363d565b945060018216600081146127bf57600181146127d057612803565b60ff19831686528186019350612803565b6127d9856135f0565b60005b838110156127fb578154818901526001820191506020810190506127dc565b838801955050505b50505092915050565b600061281960328361362c565b91507f4552433732313a207472616e7366657220746f206e6f6e20455243373231526560008301527f63656976657220696d706c656d656e74657200000000000000000000000000006020830152604082019050919050565b600061287f601c8361362c565b91507f4552433732313a20746f6b656e20616c7265616479206d696e746564000000006000830152602082019050919050565b60006128bf600a8361363d565b91507f54484952445f574f5244000000000000000000000000000000000000000000006000830152600a82019050919050565b60006128ff60248361362c565b91507f4552433732313a207472616e7366657220746f20746865207a65726f2061646460008301527f72657373000000000000000000000000000000000000000000000000000000006020830152604082019050919050565b600061296560198361362c565b91507f4552433732313a20617070726f766520746f2063616c6c6572000000000000006000830152602082019050919050565b60006129a560638361363d565b91507f222c20226465736372697074696f6e223a20224120686967686c79206163636c60008301527f61696d656420636f6c6c656374696f6e206f6620737175617265732e222c202260208301527f696d616765223a2022646174613a696d6167652f7376672b786d6c3b6261736560408301527f36342c00000000000000000000000000000000000000000000000000000000006060830152606382019050919050565b6000612a5760298361362c565b91507f54686520746f74616c206e756d626572206f66204e465473206861766520626560008301527f656e206d696e74656400000000000000000000000000000000000000000000006020830152604082019050919050565b6000612abd600b8361363d565b91507f5345434f4e445f574f52440000000000000000000000000000000000000000006000830152600b82019050919050565b6000612afd602c8361362c565b91507f4552433732313a206f70657261746f7220717565727920666f72206e6f6e657860008301527f697374656e7420746f6b656e00000000000000000000000000000000000000006020830152604082019050919050565b6000612b63600d8361363d565b91507f3c2f746578743e3c2f7376673e000000000000000000000000000000000000006000830152600d82019050919050565b6000612ba360388361362c565b91507f4552433732313a20617070726f76652063616c6c6572206973206e6f74206f7760008301527f6e6572206e6f7220617070726f76656420666f7220616c6c00000000000000006020830152604082019050919050565b6000612c09602a8361362c565b91507f4552433732313a2062616c616e636520717565727920666f7220746865207a6560008301527f726f2061646472657373000000000000000000000000000000000000000000006020830152604082019050919050565b6000612c6f60298361362c565b91507f4552433732313a206f776e657220717565727920666f72206e6f6e657869737460008301527f656e7420746f6b656e00000000000000000000000000000000000000000000006020830152604082019050919050565b6000612cd5602e8361362c565b91507f45524337323155524953746f726167653a2055524920736574206f66206e6f6e60008301527f6578697374656e7420746f6b656e0000000000000000000000000000000000006020830152604082019050919050565b6000612d3b60028361363d565b91507f227d0000000000000000000000000000000000000000000000000000000000006000830152600282019050919050565b6000612d7b60208361362c565b91507f4552433732313a206d696e7420746f20746865207a65726f20616464726573736000830152602082019050919050565b6000612dbb60318361362c565b91507f45524337323155524953746f726167653a2055524920717565727920666f722060008301527f6e6f6e6578697374656e7420746f6b656e0000000000000000000000000000006020830152604082019050919050565b6000612e21602c8361362c565b91507f4552433732313a20617070726f76656420717565727920666f72206e6f6e657860008301527f697374656e7420746f6b656e00000000000000000000000000000000000000006020830152604082019050919050565b6000612e8760298361362c565b91507f4552433732313a207472616e73666572206f6620746f6b656e2074686174206960008301527f73206e6f74206f776e00000000000000000000000000000000000000000000006020830152604082019050919050565b6000612eed602f8361362c565b91507f4552433732314d657461646174613a2055524920717565727920666f72206e6f60008301527f6e6578697374656e7420746f6b656e00000000000000000000000000000000006020830152604082019050919050565b6000612f53600a8361363d565b91507f7b226e616d65223a2022000000000000000000000000000000000000000000006000830152600a82019050919050565b6000612f9360218361362c565b91507f4552433732313a20617070726f76616c20746f2063757272656e74206f776e6560008301527f72000000000000000000000000000000000000000000000000000000000000006020830152604082019050919050565b6000612ff9600a8361363d565b91507f46495253545f574f5244000000000000000000000000000000000000000000006000830152600a82019050919050565b6000613039601d8361363d565b91507f646174613a6170706c69636174696f6e2f6a736f6e3b6261736536342c0000006000830152601d82019050919050565b600061307960318361362c565b91507f4552433732313a207472616e736665722063616c6c6572206973206e6f74206f60008301527f776e6572206e6f7220617070726f7665640000000000000000000000000000006020830152604082019050919050565b6130db816137c7565b82525050565b60006130ed828461275c565b915081905092915050565b6000613104828561275c565b9150613110828461275c565b91508190509392505050565b6000613128828661275c565b9150613134828561275c565b9150613140828461275c565b9150819050949350505050565b6000613159828561278d565b9150613165828461275c565b915061317082612b56565b91508190509392505050565b6000613187826128b2565b9150613193828461275c565b915081905092915050565b60006131a982612ab0565b91506131b5828461275c565b915081905092915050565b60006131cb82612f46565b91506131d7828561275c565b91506131e282612998565b91506131ee828461275c565b91506131f982612d2e565b91508190509392505050565b600061321082612fec565b915061321c828461275c565b915081905092915050565b60006132328261302c565b915061323e828461275c565b915081905092915050565b600060208201905061325e60008301846126cc565b92915050565b600060808201905061327960008301876126cc565b61328660208301866126cc565b61329360408301856130d2565b81810360608301526132a581846126ea565b905095945050505050565b60006040820190506132c560008301856126cc565b6132d260208301846130d2565b9392505050565b60006020820190506132ee60008301846126db565b92915050565b6000602082019050818103600083015261330e8184612723565b905092915050565b600060608201905081810360008301526133308186612723565b905061333f60208301856130d2565b61334c60408301846126cc565b949350505050565b6000602082019050818103600083015261336d8161280c565b9050919050565b6000602082019050818103600083015261338d81612872565b9050919050565b600060208201905081810360008301526133ad816128f2565b9050919050565b600060208201905081810360008301526133cd81612958565b9050919050565b600060208201905081810360008301526133ed81612a4a565b9050919050565b6000602082019050818103600083015261340d81612af0565b9050919050565b6000602082019050818103600083015261342d81612b96565b9050919050565b6000602082019050818103600083015261344d81612bfc565b9050919050565b6000602082019050818103600083015261346d81612c62565b9050919050565b6000602082019050818103600083015261348d81612cc8565b9050919050565b600060208201905081810360008301526134ad81612d6e565b9050919050565b600060208201905081810360008301526134cd81612dae565b9050919050565b600060208201905081810360008301526134ed81612e14565b9050919050565b6000602082019050818103600083015261350d81612e7a565b9050919050565b6000602082019050818103600083015261352d81612ee0565b9050919050565b6000602082019050818103600083015261354d81612f86565b9050919050565b6000602082019050818103600083015261356d8161306c565b9050919050565b600060208201905061358960008301846130d2565b92915050565b6000604051905081810181811067ffffffffffffffff821117156135b6576135b561394c565b5b8060405250919050565b600067ffffffffffffffff8211156135db576135da61394c565b5b601f19601f8301169050602081019050919050565b60008190508160005260206000209050919050565b600081519050919050565b600081519050919050565b600082825260208201905092915050565b600082825260208201905092915050565b600081905092915050565b6000613653826137c7565b915061365e836137c7565b9250827fffffffffffffffffffffffffffffffffffffffffffffffffffffffffffffffff03821115613693576136926138bf565b5b828201905092915050565b60006136a9826137c7565b91506136b4836137c7565b9250826136c4576136c36138ee565b5b828204905092915050565b60006136da826137c7565b91506136e5836137c7565b9250817fffffffffffffffffffffffffffffffffffffffffffffffffffffffffffffffff048311821515161561371e5761371d6138bf565b5b828202905092915050565b6000613734826137c7565b915061373f836137c7565b925082821015613752576137516138bf565b5b828203905092915050565b6000613768826137a7565b9050919050565b60008115159050919050565b60007fffffffff0000000000000000000000000000000000000000000000000000000082169050919050565b600073ffffffffffffffffffffffffffffffffffffffff82169050919050565b6000819050919050565b82818337600083830152505050565b60005b838110156137fe5780820151818401526020810190506137e3565b8381111561380d576000848401525b50505050565b6000600282049050600182168061382b57607f821691505b6020821081141561383f5761383e61391d565b5b50919050565b6000613850826137c7565b91507fffffffffffffffffffffffffffffffffffffffffffffffffffffffffffffffff821415613883576138826138bf565b5b600182019050919050565b6000613899826137c7565b91506138a4836137c7565b9250826138b4576138b36138ee565b5b828206905092915050565b7f4e487b7100000000000000000000000000000000000000000000000000000000600052601160045260246000fd5b7f4e487b7100000000000000000000000000000000000000000000000000000000600052601260045260246000fd5b7f4e487b7100000000000000000000000000000000000000000000000000000000600052602260045260246000fd5b7f4e487b7100000000000000000000000000000000000000000000000000000000600052604160045260246000fd5b6000601f19601f8301169050919050565b6139958161375d565b81146139a057600080fd5b50565b6139ac8161376f565b81146139b757600080fd5b50565b6139c38161377b565b81146139ce57600080fd5b50565b6139da816137c7565b81146139e557600080fd5b5056fe416e204e465420772f20494420257320686173206265656e206d696e74656420746f2025734142434445464748494a4b4c4d4e4f505152535455565758595a6162636465666768696a6b6c6d6e6f707172737475767778797a303132333435363738392b2fa26469706673582212201034d6d889d632119dd39d30818115c2f30f4d6c9d3d587d7a5b901f7ff0371f64736f6c634300080000333c73766720786d6c6e733d27687474703a2f2f7777772e77332e6f72672f323030302f73766727207072657365727665417370656374526174696f3d27784d696e594d696e206d656574272076696577426f783d273020302033353020333530273e3c7374796c653e2e62617365207b2066696c6c3a2077686974653b20666f6e742d66616d696c793a2073657269663b20666f6e742d73697a653a20323470783b207d3c2f7374796c653e3c726563742077696474683d273130302527206865696768743d2731303025272066696c6c3d27626c61636b27202f3e3c7465787420783d273530252720793d273530252720636c6173733d27626173652720646f6d696e616e742d626173656c696e653d276d6964646c652720746578742d616e63686f723d276d6964646c65273e",
  "linkReferences": {},
  "deployedLinkReferences": {}
}